{
  "_format": "hh-sol-artifact-1",
  "contractName": "NFTMarketplace",
  "sourceName": "contracts/NFTMarketplace.sol",
  "abi": [
    {
      "inputs": [],
      "stateMutability": "nonpayable",
      "type": "constructor"
    },
    {
      "anonymous": false,
      "inputs": [
        {
          "indexed": true,
          "internalType": "address",
          "name": "owner",
          "type": "address"
        },
        {
          "indexed": true,
          "internalType": "address",
          "name": "approved",
          "type": "address"
        },
        {
          "indexed": true,
          "internalType": "uint256",
          "name": "tokenId",
          "type": "uint256"
        }
      ],
      "name": "Approval",
      "type": "event"
    },
    {
      "anonymous": false,
      "inputs": [
        {
          "indexed": true,
          "internalType": "address",
          "name": "owner",
          "type": "address"
        },
        {
          "indexed": true,
          "internalType": "address",
          "name": "operator",
          "type": "address"
        },
        {
          "indexed": false,
          "internalType": "bool",
          "name": "approved",
          "type": "bool"
        }
      ],
      "name": "ApprovalForAll",
      "type": "event"
    },
    {
      "anonymous": false,
      "inputs": [
        {
          "indexed": false,
          "internalType": "uint256",
          "name": "_fromTokenId",
          "type": "uint256"
        },
        {
          "indexed": false,
          "internalType": "uint256",
          "name": "_toTokenId",
          "type": "uint256"
        }
      ],
      "name": "BatchMetadataUpdate",
      "type": "event"
    },
    {
      "anonymous": false,
      "inputs": [
        {
          "indexed": false,
          "internalType": "string",
          "name": "name",
          "type": "string"
        },
        {
          "indexed": false,
          "internalType": "string",
          "name": "message",
          "type": "string"
        },
        {
          "indexed": false,
          "internalType": "uint256",
          "name": "timestamp",
          "type": "uint256"
        },
        {
          "indexed": false,
          "internalType": "address",
          "name": "buyer",
          "type": "address"
        },
        {
          "indexed": false,
          "internalType": "uint256",
          "name": "amount",
          "type": "uint256"
        }
      ],
      "name": "ChaiBought",
      "type": "event"
    },
    {
      "anonymous": false,
      "inputs": [
        {
          "indexed": true,
          "internalType": "address",
          "name": "from",
          "type": "address"
        },
        {
          "indexed": false,
          "internalType": "string",
          "name": "name",
          "type": "string"
        },
        {
          "indexed": false,
          "internalType": "string",
          "name": "message",
          "type": "string"
        },
        {
          "indexed": false,
          "internalType": "uint256",
          "name": "timestamp",
          "type": "uint256"
        },
        {
          "indexed": false,
          "internalType": "uint256",
          "name": "amount",
          "type": "uint256"
        }
      ],
      "name": "Donation",
      "type": "event"
    },
    {
      "anonymous": false,
      "inputs": [
        {
          "indexed": false,
          "internalType": "uint256",
          "name": "newPrice",
          "type": "uint256"
        }
      ],
      "name": "ListingPriceUpdated",
      "type": "event"
    },
    {
      "anonymous": false,
      "inputs": [
        {
          "indexed": true,
          "internalType": "uint256",
          "name": "tokenId",
          "type": "uint256"
        },
        {
          "indexed": false,
          "internalType": "address",
          "name": "seller",
          "type": "address"
        },
        {
          "indexed": false,
          "internalType": "address",
          "name": "owner",
          "type": "address"
        },
        {
          "indexed": false,
          "internalType": "uint256",
          "name": "price",
          "type": "uint256"
        },
        {
          "indexed": false,
          "internalType": "bool",
          "name": "sold",
          "type": "bool"
        }
      ],
      "name": "MarketItemCreated",
      "type": "event"
    },
    {
      "anonymous": false,
      "inputs": [
        {
          "indexed": true,
          "internalType": "uint256",
          "name": "tokenId",
          "type": "uint256"
        },
        {
          "indexed": false,
          "internalType": "address",
          "name": "buyer",
          "type": "address"
        },
        {
          "indexed": false,
          "internalType": "address",
          "name": "seller",
          "type": "address"
        },
        {
          "indexed": false,
          "internalType": "uint256",
          "name": "price",
          "type": "uint256"
        }
      ],
      "name": "MarketSale",
      "type": "event"
    },
    {
      "anonymous": false,
      "inputs": [
        {
          "indexed": false,
          "internalType": "uint256",
          "name": "_tokenId",
          "type": "uint256"
        }
      ],
      "name": "MetadataUpdate",
      "type": "event"
    },
    {
      "anonymous": false,
      "inputs": [
        {
          "indexed": true,
          "internalType": "uint256",
          "name": "tokenId",
          "type": "uint256"
        },
        {
          "indexed": false,
          "internalType": "address",
          "name": "seller",
          "type": "address"
        },
        {
          "indexed": false,
          "internalType": "address",
          "name": "owner",
          "type": "address"
        },
        {
          "indexed": false,
          "internalType": "uint256",
          "name": "price",
          "type": "uint256"
        }
      ],
      "name": "TokenResold",
      "type": "event"
    },
    {
      "anonymous": false,
      "inputs": [
        {
          "indexed": true,
          "internalType": "address",
          "name": "from",
          "type": "address"
        },
        {
          "indexed": true,
          "internalType": "address",
          "name": "to",
          "type": "address"
        },
        {
          "indexed": true,
          "internalType": "uint256",
          "name": "tokenId",
          "type": "uint256"
        }
      ],
      "name": "Transfer",
      "type": "event"
    },
    {
      "inputs": [],
      "name": "Rowner",
      "outputs": [
        {
          "internalType": "address payable",
          "name": "",
          "type": "address"
        }
      ],
      "stateMutability": "view",
      "type": "function"
    },
    {
      "inputs": [
        {
          "internalType": "address",
          "name": "to",
          "type": "address"
        },
        {
          "internalType": "uint256",
          "name": "tokenId",
          "type": "uint256"
        }
      ],
      "name": "approve",
      "outputs": [],
      "stateMutability": "nonpayable",
      "type": "function"
    },
    {
      "inputs": [
        {
          "internalType": "address",
          "name": "owner",
          "type": "address"
        }
      ],
      "name": "balanceOf",
      "outputs": [
        {
          "internalType": "uint256",
          "name": "",
          "type": "uint256"
        }
      ],
      "stateMutability": "view",
      "type": "function"
    },
    {
      "inputs": [
        {
          "internalType": "uint256",
          "name": "tokenId",
          "type": "uint256"
        }
      ],
      "name": "createMarketSale",
      "outputs": [],
      "stateMutability": "payable",
      "type": "function"
    },
    {
      "inputs": [
        {
          "internalType": "string",
          "name": "tokenURI",
          "type": "string"
        },
        {
          "internalType": "uint256",
          "name": "price",
          "type": "uint256"
        }
      ],
      "name": "createToken",
      "outputs": [
        {
          "internalType": "uint256",
          "name": "",
          "type": "uint256"
        }
      ],
      "stateMutability": "payable",
      "type": "function"
    },
    {
      "inputs": [],
      "name": "fetchItemsListed",
      "outputs": [
        {
          "components": [
            {
              "internalType": "uint256",
              "name": "tokenId",
              "type": "uint256"
            },
            {
              "internalType": "address payable",
              "name": "seller",
              "type": "address"
            },
            {
              "internalType": "address payable",
              "name": "owner",
              "type": "address"
            },
            {
              "internalType": "uint256",
              "name": "price",
              "type": "uint256"
            },
            {
              "internalType": "bool",
              "name": "sold",
              "type": "bool"
            }
          ],
          "internalType": "struct NFTMarketplace.MarketItem[]",
          "name": "",
          "type": "tuple[]"
        }
      ],
      "stateMutability": "view",
      "type": "function"
    },
    {
      "inputs": [],
      "name": "fetchMarketItems",
      "outputs": [
        {
          "components": [
            {
              "internalType": "uint256",
              "name": "tokenId",
              "type": "uint256"
            },
            {
              "internalType": "address payable",
              "name": "seller",
              "type": "address"
            },
            {
              "internalType": "address payable",
              "name": "owner",
              "type": "address"
            },
            {
              "internalType": "uint256",
              "name": "price",
              "type": "uint256"
            },
            {
              "internalType": "bool",
              "name": "sold",
              "type": "bool"
            }
          ],
          "internalType": "struct NFTMarketplace.MarketItem[]",
          "name": "",
          "type": "tuple[]"
        }
      ],
      "stateMutability": "view",
      "type": "function"
    },
    {
      "inputs": [],
      "name": "fetchMyNFTs",
      "outputs": [
        {
          "components": [
            {
              "internalType": "uint256",
              "name": "tokenId",
              "type": "uint256"
            },
            {
              "internalType": "address payable",
              "name": "seller",
              "type": "address"
            },
            {
              "internalType": "address payable",
              "name": "owner",
              "type": "address"
            },
            {
              "internalType": "uint256",
              "name": "price",
              "type": "uint256"
            },
            {
              "internalType": "bool",
              "name": "sold",
              "type": "bool"
            }
          ],
          "internalType": "struct NFTMarketplace.MarketItem[]",
          "name": "",
          "type": "tuple[]"
        }
      ],
      "stateMutability": "view",
      "type": "function"
    },
    {
      "inputs": [
        {
          "internalType": "uint256",
          "name": "tokenId",
          "type": "uint256"
        }
      ],
      "name": "getApproved",
      "outputs": [
        {
          "internalType": "address",
          "name": "",
          "type": "address"
        }
      ],
      "stateMutability": "view",
      "type": "function"
    },
    {
      "inputs": [],
      "name": "getListingPrice",
      "outputs": [
        {
          "internalType": "uint256",
          "name": "",
          "type": "uint256"
        }
      ],
      "stateMutability": "view",
      "type": "function"
    },
    {
      "inputs": [
        {
          "internalType": "address",
          "name": "owner",
          "type": "address"
        },
        {
          "internalType": "address",
          "name": "operator",
          "type": "address"
        }
      ],
      "name": "isApprovedForAll",
      "outputs": [
        {
          "internalType": "bool",
          "name": "",
          "type": "bool"
        }
      ],
      "stateMutability": "view",
      "type": "function"
    },
    {
      "inputs": [],
      "name": "name",
      "outputs": [
        {
          "internalType": "string",
          "name": "",
          "type": "string"
        }
      ],
      "stateMutability": "view",
      "type": "function"
    },
    {
      "inputs": [
        {
          "internalType": "uint256",
          "name": "tokenId",
          "type": "uint256"
        }
      ],
      "name": "ownerOf",
      "outputs": [
        {
          "internalType": "address",
          "name": "",
          "type": "address"
        }
      ],
      "stateMutability": "view",
      "type": "function"
    },
    {
      "inputs": [
        {
          "internalType": "address",
          "name": "from",
          "type": "address"
        },
        {
          "internalType": "address",
          "name": "to",
          "type": "address"
        },
        {
          "internalType": "uint256",
          "name": "tokenId",
          "type": "uint256"
        }
      ],
      "name": "safeTransferFrom",
      "outputs": [],
      "stateMutability": "nonpayable",
      "type": "function"
    },
    {
      "inputs": [
        {
          "internalType": "address",
          "name": "from",
          "type": "address"
        },
        {
          "internalType": "address",
          "name": "to",
          "type": "address"
        },
        {
          "internalType": "uint256",
          "name": "tokenId",
          "type": "uint256"
        },
        {
          "internalType": "bytes",
          "name": "data",
          "type": "bytes"
        }
      ],
      "name": "safeTransferFrom",
      "outputs": [],
      "stateMutability": "nonpayable",
      "type": "function"
    },
    {
      "inputs": [
        {
          "internalType": "address",
          "name": "operator",
          "type": "address"
        },
        {
          "internalType": "bool",
          "name": "approved",
          "type": "bool"
        }
      ],
      "name": "setApprovalForAll",
      "outputs": [],
      "stateMutability": "nonpayable",
      "type": "function"
    },
    {
      "inputs": [
        {
          "internalType": "bytes4",
          "name": "interfaceId",
          "type": "bytes4"
        }
      ],
      "name": "supportsInterface",
      "outputs": [
        {
          "internalType": "bool",
          "name": "",
          "type": "bool"
        }
      ],
      "stateMutability": "view",
      "type": "function"
    },
    {
      "inputs": [],
      "name": "symbol",
      "outputs": [
        {
          "internalType": "string",
          "name": "",
          "type": "string"
        }
      ],
      "stateMutability": "view",
      "type": "function"
    },
    {
      "inputs": [
        {
          "internalType": "uint256",
          "name": "tokenId",
          "type": "uint256"
        }
      ],
      "name": "tokenURI",
      "outputs": [
        {
          "internalType": "string",
          "name": "",
          "type": "string"
        }
      ],
      "stateMutability": "view",
      "type": "function"
    },
    {
      "inputs": [
        {
          "internalType": "address",
          "name": "from",
          "type": "address"
        },
        {
          "internalType": "address",
          "name": "to",
          "type": "address"
        },
        {
          "internalType": "uint256",
          "name": "tokenId",
          "type": "uint256"
        }
      ],
      "name": "transferFrom",
      "outputs": [],
      "stateMutability": "nonpayable",
      "type": "function"
    },
    {
      "inputs": [
        {
          "internalType": "uint256",
          "name": "_listingPrice",
          "type": "uint256"
        }
      ],
      "name": "updateListingPrice",
      "outputs": [],
      "stateMutability": "payable",
      "type": "function"
    }
  ],
  "bytecode": "0x60806040526658d15e17628000600a553480156200001c57600080fd5b506040518060400160405280600e81526020017f436f6e666c757820546f6b656e730000000000000000000000000000000000008152506040518060400160405280600881526020017f43465820544553540000000000000000000000000000000000000000000000008152508160009080519060200190620000a192919062000145565b508060019080519060200190620000ba92919062000145565b50505033600e60006101000a81548173ffffffffffffffffffffffffffffffffffffffff021916908373ffffffffffffffffffffffffffffffffffffffff16021790555033600b60006101000a81548173ffffffffffffffffffffffffffffffffffffffff021916908373ffffffffffffffffffffffffffffffffffffffff1602179055506200025a565b828054620001539062000224565b90600052602060002090601f016020900481019282620001775760008555620001c3565b82601f106200019257805160ff1916838001178555620001c3565b82800160010185558215620001c3579182015b82811115620001c2578251825591602001919060010190620001a5565b5b509050620001d29190620001d6565b5090565b5b80821115620001f1576000816000905550600101620001d7565b5090565b7f4e487b7100000000000000000000000000000000000000000000000000000000600052602260045260246000fd5b600060028204905060018216806200023d57607f821691505b60208210811415620002545762000253620001f5565b5b50919050565b613ebd806200026a6000396000f3fe60806040526004361061012a5760003560e01c80636352211e116100ab578063a22cb4651161006f578063a22cb465146103fb578063ae677aa314610424578063b88d4fde14610440578063be9af53614610469578063c87b56dd14610485578063e985e9c5146104c25761012a565b80636352211e146102fb57806370a082311461033857806372b3b6201461037557806395d89b41146103a5578063a0d18045146103d05761012a565b806312e85585116100f257806312e8558514610228578063202e37401461025357806323b872dd1461027e57806342842e0e146102a757806345f8fa80146102d05761012a565b806301ffc9a71461012f57806306fdde031461016c578063081812fc14610197578063095ea7b3146101d45780630f08efe0146101fd575b600080fd5b34801561013b57600080fd5b5061015660048036038101906101519190612aaf565b6104ff565b6040516101639190612af7565b60405180910390f35b34801561017857600080fd5b50610181610560565b60405161018e9190612bab565b60405180910390f35b3480156101a357600080fd5b506101be60048036038101906101b99190612c03565b6105f2565b6040516101cb9190612c71565b60405180910390f35b3480156101e057600080fd5b506101fb60048036038101906101f69190612cb8565b610638565b005b34801561020957600080fd5b50610212610750565b60405161021f9190612e4e565b60405180910390f35b34801561023457600080fd5b5061023d6109b9565b60405161024a9190612e7f565b60405180910390f35b34801561025f57600080fd5b506102686109c3565b6040516102759190612e4e565b60405180910390f35b34801561028a57600080fd5b506102a560048036038101906102a09190612e9a565b610cb1565b005b3480156102b357600080fd5b506102ce60048036038101906102c99190612e9a565b610d11565b005b3480156102dc57600080fd5b506102e5610d31565b6040516102f29190612e4e565b60405180910390f35b34801561030757600080fd5b50610322600480360381019061031d9190612c03565b61101f565b60405161032f9190612c71565b60405180910390f35b34801561034457600080fd5b5061035f600480360381019061035a9190612eed565b6110a6565b60405161036c9190612e7f565b60405180910390f35b61038f600480360381019061038a919061304f565b61115e565b60405161039c9190612e7f565b60405180910390f35b3480156103b157600080fd5b506103ba6111a0565b6040516103c79190612bab565b60405180910390f35b3480156103dc57600080fd5b506103e5611232565b6040516103f291906130ba565b60405180910390f35b34801561040757600080fd5b50610422600480360381019061041d9190613101565b611258565b005b61043e60048036038101906104399190612c03565b61126e565b005b34801561044c57600080fd5b50610467600480360381019061046291906131e2565b611341565b005b610483600480360381019061047e9190612c03565b6113a3565b005b34801561049157600080fd5b506104ac60048036038101906104a79190612c03565b61161d565b6040516104b99190612bab565b60405180910390f35b3480156104ce57600080fd5b506104e960048036038101906104e49190613265565b611730565b6040516104f69190612af7565b60405180910390f35b6000634906490660e01b7bffffffffffffffffffffffffffffffffffffffffffffffffffffffff1916827bffffffffffffffffffffffffffffffffffffffffffffffffffffffff191614806105595750610558826117c4565b5b9050919050565b60606000805461056f906132d4565b80601f016020809104026020016040519081016040528092919081815260200182805461059b906132d4565b80156105e85780601f106105bd576101008083540402835291602001916105e8565b820191906000526020600020905b8154815290600101906020018083116105cb57829003601f168201915b5050505050905090565b60006105fd826118a6565b6004600083815260200190815260200160002060009054906101000a900473ffffffffffffffffffffffffffffffffffffffff169050919050565b60006106438261101f565b90508073ffffffffffffffffffffffffffffffffffffffff168373ffffffffffffffffffffffffffffffffffffffff1614156106b4576040517f08c379a00000000000000000000000000000000000000000000000000000000081526004016106ab90613378565b60405180910390fd5b8073ffffffffffffffffffffffffffffffffffffffff166106d36118f1565b73ffffffffffffffffffffffffffffffffffffffff1614806107025750610701816106fc6118f1565b611730565b5b610741576040517f08c379a00000000000000000000000000000000000000000000000000000000081526004016107389061340a565b60405180910390fd5b61074b83836118f9565b505050565b6060600061075e60076119b2565b9050600061076c60086119b2565b61077660076119b2565b6107809190613459565b90506000808267ffffffffffffffff81111561079f5761079e612f24565b5b6040519080825280602002602001820160405280156107d857816020015b6107c5612943565b8152602001906001900390816107bd5790505b50905060005b848110156109ae573073ffffffffffffffffffffffffffffffffffffffff16600c600060018461080e919061348d565b815260200190815260200160002060020160009054906101000a900473ffffffffffffffffffffffffffffffffffffffff1673ffffffffffffffffffffffffffffffffffffffff16141561099b57600060018261086b919061348d565b90506000600c60008381526020019081526020016000209050806040518060a0016040529081600082015481526020016001820160009054906101000a900473ffffffffffffffffffffffffffffffffffffffff1673ffffffffffffffffffffffffffffffffffffffff1673ffffffffffffffffffffffffffffffffffffffff1681526020016002820160009054906101000a900473ffffffffffffffffffffffffffffffffffffffff1673ffffffffffffffffffffffffffffffffffffffff1673ffffffffffffffffffffffffffffffffffffffff168152602001600382015481526020016004820160009054906101000a900460ff16151515158152505084868151811061097e5761097d6134e3565b5b6020026020010181905250600185610996919061348d565b945050505b80806109a690613512565b9150506107de565b508094505050505090565b6000600a54905090565b606060006109d160076119b2565b905060008060005b83811015610a7a573373ffffffffffffffffffffffffffffffffffffffff16600c6000600184610a09919061348d565b815260200190815260200160002060020160009054906101000a900473ffffffffffffffffffffffffffffffffffffffff1673ffffffffffffffffffffffffffffffffffffffff161415610a6757600183610a64919061348d565b92505b8080610a7290613512565b9150506109d9565b5060008267ffffffffffffffff811115610a9757610a96612f24565b5b604051908082528060200260200182016040528015610ad057816020015b610abd612943565b815260200190600190039081610ab55790505b50905060005b84811015610ca6573373ffffffffffffffffffffffffffffffffffffffff16600c6000600184610b06919061348d565b815260200190815260200160002060020160009054906101000a900473ffffffffffffffffffffffffffffffffffffffff1673ffffffffffffffffffffffffffffffffffffffff161415610c93576000600182610b63919061348d565b90506000600c60008381526020019081526020016000209050806040518060a0016040529081600082015481526020016001820160009054906101000a900473ffffffffffffffffffffffffffffffffffffffff1673ffffffffffffffffffffffffffffffffffffffff1673ffffffffffffffffffffffffffffffffffffffff1681526020016002820160009054906101000a900473ffffffffffffffffffffffffffffffffffffffff1673ffffffffffffffffffffffffffffffffffffffff1673ffffffffffffffffffffffffffffffffffffffff168152602001600382015481526020016004820160009054906101000a900460ff161515151581525050848681518110610c7657610c756134e3565b5b6020026020010181905250600185610c8e919061348d565b945050505b8080610c9e90613512565b915050610ad6565b508094505050505090565b610cc2610cbc6118f1565b826119c0565b610d01576040517f08c379a0000000000000000000000000000000000000000000000000000000008152600401610cf8906135cd565b60405180910390fd5b610d0c838383611a55565b505050565b610d2c83838360405180602001604052806000815250611341565b505050565b60606000610d3f60076119b2565b905060008060005b83811015610de8573373ffffffffffffffffffffffffffffffffffffffff16600c6000600184610d77919061348d565b815260200190815260200160002060010160009054906101000a900473ffffffffffffffffffffffffffffffffffffffff1673ffffffffffffffffffffffffffffffffffffffff161415610dd557600183610dd2919061348d565b92505b8080610de090613512565b915050610d47565b5060008267ffffffffffffffff811115610e0557610e04612f24565b5b604051908082528060200260200182016040528015610e3e57816020015b610e2b612943565b815260200190600190039081610e235790505b50905060005b84811015611014573373ffffffffffffffffffffffffffffffffffffffff16600c6000600184610e74919061348d565b815260200190815260200160002060010160009054906101000a900473ffffffffffffffffffffffffffffffffffffffff1673ffffffffffffffffffffffffffffffffffffffff161415611001576000600182610ed1919061348d565b90506000600c60008381526020019081526020016000209050806040518060a0016040529081600082015481526020016001820160009054906101000a900473ffffffffffffffffffffffffffffffffffffffff1673ffffffffffffffffffffffffffffffffffffffff1673ffffffffffffffffffffffffffffffffffffffff1681526020016002820160009054906101000a900473ffffffffffffffffffffffffffffffffffffffff1673ffffffffffffffffffffffffffffffffffffffff1673ffffffffffffffffffffffffffffffffffffffff168152602001600382015481526020016004820160009054906101000a900460ff161515151581525050848681518110610fe457610fe36134e3565b5b6020026020010181905250600185610ffc919061348d565b945050505b808061100c90613512565b915050610e44565b508094505050505090565b60008061102b83611d4f565b9050600073ffffffffffffffffffffffffffffffffffffffff168173ffffffffffffffffffffffffffffffffffffffff16141561109d576040517f08c379a000000000000000000000000000000000000000000000000000000000815260040161109490613639565b60405180910390fd5b80915050919050565b60008073ffffffffffffffffffffffffffffffffffffffff168273ffffffffffffffffffffffffffffffffffffffff161415611117576040517f08c379a000000000000000000000000000000000000000000000000000000000815260040161110e906136cb565b60405180910390fd5b600360008373ffffffffffffffffffffffffffffffffffffffff1673ffffffffffffffffffffffffffffffffffffffff168152602001908152602001600020549050919050565b600061116a6007611d8c565b600061117660076119b2565b90506111823382611da2565b61118c8185611fc0565b611196818461206b565b8091505092915050565b6060600180546111af906132d4565b80601f01602080910402602001604051908101604052809291908181526020018280546111db906132d4565b80156112285780601f106111fd57610100808354040283529160200191611228565b820191906000526020600020905b81548152906001019060200180831161120b57829003601f168201915b5050505050905090565b600e60009054906101000a900473ffffffffffffffffffffffffffffffffffffffff1681565b61126a6112636118f1565b838361226e565b5050565b3373ffffffffffffffffffffffffffffffffffffffff16600b60009054906101000a900473ffffffffffffffffffffffffffffffffffffffff1673ffffffffffffffffffffffffffffffffffffffff16146112fe576040517f08c379a00000000000000000000000000000000000000000000000000000000081526004016112f59061375d565b60405180910390fd5b80600a819055507f661c8d2e494b21e778d6b19ffb42ca00ee63062be7f9eb28af0850e01a9cf214600a546040516113369190612e7f565b60405180910390a150565b61135261134c6118f1565b836119c0565b611391576040517f08c379a0000000000000000000000000000000000000000000000000000000008152600401611388906135cd565b60405180910390fd5b61139d848484846123db565b50505050565b6000600c60008381526020019081526020016000206003015490506000600c600084815260200190815260200160002060010160009054906101000a900473ffffffffffffffffffffffffffffffffffffffff16905081341461143b576040517f08c379a0000000000000000000000000000000000000000000000000000000008152600401611432906137ef565b60405180910390fd5b33600c600085815260200190815260200160002060020160006101000a81548173ffffffffffffffffffffffffffffffffffffffff021916908373ffffffffffffffffffffffffffffffffffffffff1602179055506001600c600085815260200190815260200160002060040160006101000a81548160ff0219169083151502179055506000600c600085815260200190815260200160002060010160006101000a81548173ffffffffffffffffffffffffffffffffffffffff021916908373ffffffffffffffffffffffffffffffffffffffff16021790555061151f6008611d8c565b61152a303385611a55565b600b60009054906101000a900473ffffffffffffffffffffffffffffffffffffffff1673ffffffffffffffffffffffffffffffffffffffff166108fc600a549081150290604051600060405180830381858888f19350505050158015611594573d6000803e3d6000fd5b508073ffffffffffffffffffffffffffffffffffffffff166108fc349081150290604051600060405180830381858888f193505050501580156115db573d6000803e3d6000fd5b50827f92702ca16506c19534081722898e3d74348202feb9cec071d74fc908c67dd03e3383856040516116109392919061380f565b60405180910390a2505050565b6060611628826118a6565b6000600660008481526020019081526020016000208054611648906132d4565b80601f0160208091040260200160405190810160405280929190818152602001828054611674906132d4565b80156116c15780601f10611696576101008083540402835291602001916116c1565b820191906000526020600020905b8154815290600101906020018083116116a457829003601f168201915b5050505050905060006116d2612437565b90506000815114156116e857819250505061172b565b60008251111561171d578082604051602001611705929190613882565b6040516020818303038152906040529250505061172b565b6117268461244e565b925050505b919050565b6000600560008473ffffffffffffffffffffffffffffffffffffffff1673ffffffffffffffffffffffffffffffffffffffff16815260200190815260200160002060008373ffffffffffffffffffffffffffffffffffffffff1673ffffffffffffffffffffffffffffffffffffffff16815260200190815260200160002060009054906101000a900460ff16905092915050565b60007f80ac58cd000000000000000000000000000000000000000000000000000000007bffffffffffffffffffffffffffffffffffffffffffffffffffffffff1916827bffffffffffffffffffffffffffffffffffffffffffffffffffffffff1916148061188f57507f5b5e139f000000000000000000000000000000000000000000000000000000007bffffffffffffffffffffffffffffffffffffffffffffffffffffffff1916827bffffffffffffffffffffffffffffffffffffffffffffffffffffffff1916145b8061189f575061189e826124b6565b5b9050919050565b6118af81612520565b6118ee576040517f08c379a00000000000000000000000000000000000000000000000000000000081526004016118e590613639565b60405180910390fd5b50565b600033905090565b816004600083815260200190815260200160002060006101000a81548173ffffffffffffffffffffffffffffffffffffffff021916908373ffffffffffffffffffffffffffffffffffffffff160217905550808273ffffffffffffffffffffffffffffffffffffffff1661196c8361101f565b73ffffffffffffffffffffffffffffffffffffffff167f8c5be1e5ebec7d5bd14f71427d1e84f3dd0314c0f7b2291e5b200ac8c7c3b92560405160405180910390a45050565b600081600001549050919050565b6000806119cc8361101f565b90508073ffffffffffffffffffffffffffffffffffffffff168473ffffffffffffffffffffffffffffffffffffffff161480611a0e5750611a0d8185611730565b5b80611a4c57508373ffffffffffffffffffffffffffffffffffffffff16611a34846105f2565b73ffffffffffffffffffffffffffffffffffffffff16145b91505092915050565b8273ffffffffffffffffffffffffffffffffffffffff16611a758261101f565b73ffffffffffffffffffffffffffffffffffffffff1614611acb576040517f08c379a0000000000000000000000000000000000000000000000000000000008152600401611ac290613918565b60405180910390fd5b600073ffffffffffffffffffffffffffffffffffffffff168273ffffffffffffffffffffffffffffffffffffffff161415611b3b576040517f08c379a0000000000000000000000000000000000000000000000000000000008152600401611b32906139aa565b60405180910390fd5b611b488383836001612561565b8273ffffffffffffffffffffffffffffffffffffffff16611b688261101f565b73ffffffffffffffffffffffffffffffffffffffff1614611bbe576040517f08c379a0000000000000000000000000000000000000000000000000000000008152600401611bb590613918565b60405180910390fd5b6004600082815260200190815260200160002060006101000a81549073ffffffffffffffffffffffffffffffffffffffff02191690556001600360008573ffffffffffffffffffffffffffffffffffffffff1673ffffffffffffffffffffffffffffffffffffffff168152602001908152602001600020600082825403925050819055506001600360008473ffffffffffffffffffffffffffffffffffffffff1673ffffffffffffffffffffffffffffffffffffffff16815260200190815260200160002060008282540192505081905550816002600083815260200190815260200160002060006101000a81548173ffffffffffffffffffffffffffffffffffffffff021916908373ffffffffffffffffffffffffffffffffffffffff160217905550808273ffffffffffffffffffffffffffffffffffffffff168473ffffffffffffffffffffffffffffffffffffffff167fddf252ad1be2c89b69c2b068fc378daa952ba7f163c4a11628f55a4df523b3ef60405160405180910390a4611d4a8383836001612567565b505050565b60006002600083815260200190815260200160002060009054906101000a900473ffffffffffffffffffffffffffffffffffffffff169050919050565b6001816000016000828254019250508190555050565b600073ffffffffffffffffffffffffffffffffffffffff168273ffffffffffffffffffffffffffffffffffffffff161415611e12576040517f08c379a0000000000000000000000000000000000000000000000000000000008152600401611e0990613a16565b60405180910390fd5b611e1b81612520565b15611e5b576040517f08c379a0000000000000000000000000000000000000000000000000000000008152600401611e5290613a82565b60405180910390fd5b611e69600083836001612561565b611e7281612520565b15611eb2576040517f08c379a0000000000000000000000000000000000000000000000000000000008152600401611ea990613a82565b60405180910390fd5b6001600360008473ffffffffffffffffffffffffffffffffffffffff1673ffffffffffffffffffffffffffffffffffffffff16815260200190815260200160002060008282540192505081905550816002600083815260200190815260200160002060006101000a81548173ffffffffffffffffffffffffffffffffffffffff021916908373ffffffffffffffffffffffffffffffffffffffff160217905550808273ffffffffffffffffffffffffffffffffffffffff16600073ffffffffffffffffffffffffffffffffffffffff167fddf252ad1be2c89b69c2b068fc378daa952ba7f163c4a11628f55a4df523b3ef60405160405180910390a4611fbc600083836001612567565b5050565b611fc982612520565b612008576040517f08c379a0000000000000000000000000000000000000000000000000000000008152600401611fff90613b14565b60405180910390fd5b8060066000848152602001908152602001600020908051906020019061202f9291906129a0565b507ff8e1a15aba9398e019f0b49df1a4fde98ee17ae345cb5f6b5e2c27f5033e8ce78260405161205f9190612e7f565b60405180910390a15050565b600081116120ae576040517f08c379a00000000000000000000000000000000000000000000000000000000081526004016120a590613b80565b60405180910390fd5b600a5434146120f2576040517f08c379a00000000000000000000000000000000000000000000000000000000081526004016120e990613c12565b60405180910390fd5b6040518060a001604052808381526020013373ffffffffffffffffffffffffffffffffffffffff1681526020013073ffffffffffffffffffffffffffffffffffffffff16815260200182815260200160001515815250600c60008481526020019081526020016000206000820151816000015560208201518160010160006101000a81548173ffffffffffffffffffffffffffffffffffffffff021916908373ffffffffffffffffffffffffffffffffffffffff16021790555060408201518160020160006101000a81548173ffffffffffffffffffffffffffffffffffffffff021916908373ffffffffffffffffffffffffffffffffffffffff1602179055506060820151816003015560808201518160040160006101000a81548160ff02191690831515021790555090505061222b333084611a55565b817fb640004f1d14576d0c209e240cad0410e0d8c0c33a09375861fbadae2588a98d33308460006040516122629493929190613c32565b60405180910390a25050565b8173ffffffffffffffffffffffffffffffffffffffff168373ffffffffffffffffffffffffffffffffffffffff1614156122dd576040517f08c379a00000000000000000000000000000000000000000000000000000000081526004016122d490613cc3565b60405180910390fd5b80600560008573ffffffffffffffffffffffffffffffffffffffff1673ffffffffffffffffffffffffffffffffffffffff16815260200190815260200160002060008473ffffffffffffffffffffffffffffffffffffffff1673ffffffffffffffffffffffffffffffffffffffff16815260200190815260200160002060006101000a81548160ff0219169083151502179055508173ffffffffffffffffffffffffffffffffffffffff168373ffffffffffffffffffffffffffffffffffffffff167f17307eab39ab6107e8899845ad3d59bd9653f200f220920489ca2b5937696c31836040516123ce9190612af7565b60405180910390a3505050565b6123e6848484611a55565b6123f28484848461256d565b612431576040517f08c379a000000000000000000000000000000000000000000000000000000000815260040161242890613d55565b60405180910390fd5b50505050565b606060405180602001604052806000815250905090565b6060612459826118a6565b6000612463612437565b9050600081511161248357604051806020016040528060008152506124ae565b8061248d846126f5565b60405160200161249e929190613882565b6040516020818303038152906040525b915050919050565b60007f01ffc9a7000000000000000000000000000000000000000000000000000000007bffffffffffffffffffffffffffffffffffffffffffffffffffffffff1916827bffffffffffffffffffffffffffffffffffffffffffffffffffffffff1916149050919050565b60008073ffffffffffffffffffffffffffffffffffffffff1661254283611d4f565b73ffffffffffffffffffffffffffffffffffffffff1614159050919050565b50505050565b50505050565b600061258e8473ffffffffffffffffffffffffffffffffffffffff166127cd565b156126e8578373ffffffffffffffffffffffffffffffffffffffff1663150b7a026125b76118f1565b8786866040518563ffffffff1660e01b81526004016125d99493929190613dca565b6020604051808303816000875af192505050801561261557506040513d601f19601f820116820180604052508101906126129190613e2b565b60015b612698573d8060008114612645576040519150601f19603f3d011682016040523d82523d6000602084013e61264a565b606091505b50600081511415612690576040517f08c379a000000000000000000000000000000000000000000000000000000000815260040161268790613d55565b60405180910390fd5b805181602001fd5b63150b7a0260e01b7bffffffffffffffffffffffffffffffffffffffffffffffffffffffff1916817bffffffffffffffffffffffffffffffffffffffffffffffffffffffff1916149150506126ed565b600190505b949350505050565b606060006001612704846127f0565b01905060008167ffffffffffffffff81111561272357612722612f24565b5b6040519080825280601f01601f1916602001820160405280156127555781602001600182028036833780820191505090505b509050600082602001820190505b6001156127c2578080600190039150507f3031323334353637383961626364656600000000000000000000000000000000600a86061a8153600a85816127ac576127ab613e58565b5b04945060008514156127bd576127c2565b612763565b819350505050919050565b6000808273ffffffffffffffffffffffffffffffffffffffff163b119050919050565b600080600090507a184f03e93ff9f4daa797ed6e38ed64bf6a1f010000000000000000831061284e577a184f03e93ff9f4daa797ed6e38ed64bf6a1f010000000000000000838161284457612843613e58565b5b0492506040810190505b6d04ee2d6d415b85acef8100000000831061288b576d04ee2d6d415b85acef8100000000838161288157612880613e58565b5b0492506020810190505b662386f26fc1000083106128ba57662386f26fc1000083816128b0576128af613e58565b5b0492506010810190505b6305f5e10083106128e3576305f5e10083816128d9576128d8613e58565b5b0492506008810190505b61271083106129085761271083816128fe576128fd613e58565b5b0492506004810190505b6064831061292b576064838161292157612920613e58565b5b0492506002810190505b600a831061293a576001810190505b80915050919050565b6040518060a0016040528060008152602001600073ffffffffffffffffffffffffffffffffffffffff168152602001600073ffffffffffffffffffffffffffffffffffffffff168152602001600081526020016000151581525090565b8280546129ac906132d4565b90600052602060002090601f0160209004810192826129ce5760008555612a15565b82601f106129e757805160ff1916838001178555612a15565b82800160010185558215612a15579182015b82811115612a145782518255916020019190600101906129f9565b5b509050612a229190612a26565b5090565b5b80821115612a3f576000816000905550600101612a27565b5090565b6000604051905090565b600080fd5b600080fd5b60007fffffffff0000000000000000000000000000000000000000000000000000000082169050919050565b612a8c81612a57565b8114612a9757600080fd5b50565b600081359050612aa981612a83565b92915050565b600060208284031215612ac557612ac4612a4d565b5b6000612ad384828501612a9a565b91505092915050565b60008115159050919050565b612af181612adc565b82525050565b6000602082019050612b0c6000830184612ae8565b92915050565b600081519050919050565b600082825260208201905092915050565b60005b83811015612b4c578082015181840152602081019050612b31565b83811115612b5b576000848401525b50505050565b6000601f19601f8301169050919050565b6000612b7d82612b12565b612b878185612b1d565b9350612b97818560208601612b2e565b612ba081612b61565b840191505092915050565b60006020820190508181036000830152612bc58184612b72565b905092915050565b6000819050919050565b612be081612bcd565b8114612beb57600080fd5b50565b600081359050612bfd81612bd7565b92915050565b600060208284031215612c1957612c18612a4d565b5b6000612c2784828501612bee565b91505092915050565b600073ffffffffffffffffffffffffffffffffffffffff82169050919050565b6000612c5b82612c30565b9050919050565b612c6b81612c50565b82525050565b6000602082019050612c866000830184612c62565b92915050565b612c9581612c50565b8114612ca057600080fd5b50565b600081359050612cb281612c8c565b92915050565b60008060408385031215612ccf57612cce612a4d565b5b6000612cdd85828601612ca3565b9250506020612cee85828601612bee565b9150509250929050565b600081519050919050565b600082825260208201905092915050565b6000819050602082019050919050565b612d2d81612bcd565b82525050565b6000612d3e82612c30565b9050919050565b612d4e81612d33565b82525050565b612d5d81612adc565b82525050565b60a082016000820151612d796000850182612d24565b506020820151612d8c6020850182612d45565b506040820151612d9f6040850182612d45565b506060820151612db26060850182612d24565b506080820151612dc56080850182612d54565b50505050565b6000612dd78383612d63565b60a08301905092915050565b6000602082019050919050565b6000612dfb82612cf8565b612e058185612d03565b9350612e1083612d14565b8060005b83811015612e41578151612e288882612dcb565b9750612e3383612de3565b925050600181019050612e14565b5085935050505092915050565b60006020820190508181036000830152612e688184612df0565b905092915050565b612e7981612bcd565b82525050565b6000602082019050612e946000830184612e70565b92915050565b600080600060608486031215612eb357612eb2612a4d565b5b6000612ec186828701612ca3565b9350506020612ed286828701612ca3565b9250506040612ee386828701612bee565b9150509250925092565b600060208284031215612f0357612f02612a4d565b5b6000612f1184828501612ca3565b91505092915050565b600080fd5b600080fd5b7f4e487b7100000000000000000000000000000000000000000000000000000000600052604160045260246000fd5b612f5c82612b61565b810181811067ffffffffffffffff82111715612f7b57612f7a612f24565b5b80604052505050565b6000612f8e612a43565b9050612f9a8282612f53565b919050565b600067ffffffffffffffff821115612fba57612fb9612f24565b5b612fc382612b61565b9050602081019050919050565b82818337600083830152505050565b6000612ff2612fed84612f9f565b612f84565b90508281526020810184848401111561300e5761300d612f1f565b5b613019848285612fd0565b509392505050565b600082601f83011261303657613035612f1a565b5b8135613046848260208601612fdf565b91505092915050565b6000806040838503121561306657613065612a4d565b5b600083013567ffffffffffffffff81111561308457613083612a52565b5b61309085828601613021565b92505060206130a185828601612bee565b9150509250929050565b6130b481612d33565b82525050565b60006020820190506130cf60008301846130ab565b92915050565b6130de81612adc565b81146130e957600080fd5b50565b6000813590506130fb816130d5565b92915050565b6000806040838503121561311857613117612a4d565b5b600061312685828601612ca3565b9250506020613137858286016130ec565b9150509250929050565b600067ffffffffffffffff82111561315c5761315b612f24565b5b61316582612b61565b9050602081019050919050565b600061318561318084613141565b612f84565b9050828152602081018484840111156131a1576131a0612f1f565b5b6131ac848285612fd0565b509392505050565b600082601f8301126131c9576131c8612f1a565b5b81356131d9848260208601613172565b91505092915050565b600080600080608085870312156131fc576131fb612a4d565b5b600061320a87828801612ca3565b945050602061321b87828801612ca3565b935050604061322c87828801612bee565b925050606085013567ffffffffffffffff81111561324d5761324c612a52565b5b613259878288016131b4565b91505092959194509250565b6000806040838503121561327c5761327b612a4d565b5b600061328a85828601612ca3565b925050602061329b85828601612ca3565b9150509250929050565b7f4e487b7100000000000000000000000000000000000000000000000000000000600052602260045260246000fd5b600060028204905060018216806132ec57607f821691505b60208210811415613300576132ff6132a5565b5b50919050565b7f4552433732313a20617070726f76616c20746f2063757272656e74206f776e6560008201527f7200000000000000000000000000000000000000000000000000000000000000602082015250565b6000613362602183612b1d565b915061336d82613306565b604082019050919050565b6000602082019050818103600083015261339181613355565b9050919050565b7f4552433732313a20617070726f76652063616c6c6572206973206e6f7420746f60008201527f6b656e206f776e6572206f7220617070726f76656420666f7220616c6c000000602082015250565b60006133f4603d83612b1d565b91506133ff82613398565b604082019050919050565b60006020820190508181036000830152613423816133e7565b9050919050565b7f4e487b7100000000000000000000000000000000000000000000000000000000600052601160045260246000fd5b600061346482612bcd565b915061346f83612bcd565b9250828210156134825761348161342a565b5b828203905092915050565b600061349882612bcd565b91506134a383612bcd565b9250827fffffffffffffffffffffffffffffffffffffffffffffffffffffffffffffffff038211156134d8576134d761342a565b5b828201905092915050565b7f4e487b7100000000000000000000000000000000000000000000000000000000600052603260045260246000fd5b600061351d82612bcd565b91507fffffffffffffffffffffffffffffffffffffffffffffffffffffffffffffffff8214156135505761354f61342a565b5b600182019050919050565b7f4552433732313a2063616c6c6572206973206e6f7420746f6b656e206f776e6560008201527f72206f7220617070726f76656400000000000000000000000000000000000000602082015250565b60006135b7602d83612b1d565b91506135c28261355b565b604082019050919050565b600060208201905081810360008301526135e6816135aa565b9050919050565b7f4552433732313a20696e76616c696420746f6b656e2049440000000000000000600082015250565b6000613623601883612b1d565b915061362e826135ed565b602082019050919050565b6000602082019050818103600083015261365281613616565b9050919050565b7f4552433732313a2061646472657373207a65726f206973206e6f74206120766160008201527f6c6964206f776e65720000000000000000000000000000000000000000000000602082015250565b60006136b5602983612b1d565b91506136c082613659565b604082019050919050565b600060208201905081810360008301526136e4816136a8565b9050919050565b7f4f6e6c79206d61726b6574706c616365206f776e65722063616e20757064617460008201527f65206c697374696e672070726963652e00000000000000000000000000000000602082015250565b6000613747603083612b1d565b9150613752826136eb565b604082019050919050565b600060208201905081810360008301526137768161373a565b9050919050565b7f506c65617365207375626d6974207468652061736b696e67207072696365206960008201527f6e206f7264657220746f20636f6d706c65746520746865207075726368617365602082015250565b60006137d9604083612b1d565b91506137e48261377d565b604082019050919050565b60006020820190508181036000830152613808816137cc565b9050919050565b60006060820190506138246000830186612c62565b6138316020830185612c62565b61383e6040830184612e70565b949350505050565b600081905092915050565b600061385c82612b12565b6138668185613846565b9350613876818560208601612b2e565b80840191505092915050565b600061388e8285613851565b915061389a8284613851565b91508190509392505050565b7f4552433732313a207472616e736665722066726f6d20696e636f72726563742060008201527f6f776e6572000000000000000000000000000000000000000000000000000000602082015250565b6000613902602583612b1d565b915061390d826138a6565b604082019050919050565b60006020820190508181036000830152613931816138f5565b9050919050565b7f4552433732313a207472616e7366657220746f20746865207a65726f2061646460008201527f7265737300000000000000000000000000000000000000000000000000000000602082015250565b6000613994602483612b1d565b915061399f82613938565b604082019050919050565b600060208201905081810360008301526139c381613987565b9050919050565b7f4552433732313a206d696e7420746f20746865207a65726f2061646472657373600082015250565b6000613a00602083612b1d565b9150613a0b826139ca565b602082019050919050565b60006020820190508181036000830152613a2f816139f3565b9050919050565b7f4552433732313a20746f6b656e20616c7265616479206d696e74656400000000600082015250565b6000613a6c601c83612b1d565b9150613a7782613a36565b602082019050919050565b60006020820190508181036000830152613a9b81613a5f565b9050919050565b7f45524337323155524953746f726167653a2055524920736574206f66206e6f6e60008201527f6578697374656e7420746f6b656e000000000000000000000000000000000000602082015250565b6000613afe602e83612b1d565b9150613b0982613aa2565b604082019050919050565b60006020820190508181036000830152613b2d81613af1565b9050919050565b7f5072696365206d757374206265206174206c6561737420312077656900000000600082015250565b6000613b6a601c83612b1d565b9150613b7582613b34565b602082019050919050565b60006020820190508181036000830152613b9981613b5d565b9050919050565b7f5072696365206d75737420626520657175616c20746f206c697374696e67207060008201527f7269636500000000000000000000000000000000000000000000000000000000602082015250565b6000613bfc602483612b1d565b9150613c0782613ba0565b604082019050919050565b60006020820190508181036000830152613c2b81613bef565b9050919050565b6000608082019050613c476000830187612c62565b613c546020830186612c62565b613c616040830185612e70565b613c6e6060830184612ae8565b95945050505050565b7f4552433732313a20617070726f766520746f2063616c6c657200000000000000600082015250565b6000613cad601983612b1d565b9150613cb882613c77565b602082019050919050565b60006020820190508181036000830152613cdc81613ca0565b9050919050565b7f4552433732313a207472616e7366657220746f206e6f6e20455243373231526560008201527f63656976657220696d706c656d656e7465720000000000000000000000000000602082015250565b6000613d3f603283612b1d565b9150613d4a82613ce3565b604082019050919050565b60006020820190508181036000830152613d6e81613d32565b9050919050565b600081519050919050565b600082825260208201905092915050565b6000613d9c82613d75565b613da68185613d80565b9350613db6818560208601612b2e565b613dbf81612b61565b840191505092915050565b6000608082019050613ddf6000830187612c62565b613dec6020830186612c62565b613df96040830185612e70565b8181036060830152613e0b8184613d91565b905095945050505050565b600081519050613e2581612a83565b92915050565b600060208284031215613e4157613e40612a4d565b5b6000613e4f84828501613e16565b91505092915050565b7f4e487b7100000000000000000000000000000000000000000000000000000000600052601260045260246000fdfea26469706673582212206234f526a80c6dbee31015e79ddd643abbc9443fd67d47b0e9ae84dbbd3a30dd64736f6c634300080a0033",
  "linkReferences": {},
  "deployedLinkReferences": {}
}